:107E000001C0E1C0112484B7882361F0982F9A70D3
:107E1000923041F081FF02C097EF94BF282E80E09E
:107E2000BDD0EEC085E08093810082E08093C000E9
:107E300088E18093C10086E08093C20085E1809351
:107E4000C4008EE0ABD0259A86E02CE33BEF91E0B6
:107E5000309385002093840096BBB09BFECF1D9A83
:107E6000A8954091C00047FD02C0815089F723E0EA
:107E7000E22EDD24D39435E0C32E41E1B42E82D02E
:107E8000813459F47FD0182F8FD083E0113809F452
:107E900088E071D080E16FD0F2CF823419F484E1B0
:107EA0008BD0F8CF853411F485E0FACF853541F4D5
:107EB00069D0C82F67D0D82FCC0FDD1F75D0EACF7F
:107EC000863521F484E078D080E0E3CF843609F071
:107ED00033C058D057D0182F55D0082F612C772495
:107EE000739443018FEF681A780A4CD0F4018083B1
:107EF0001611F7CF59D0053409F4FFCFFE01E7BEC4
:107F0000E89507B600FCFDCFFE0120E031E0D90185
:107F10002E5F3F4F8D919C910C01D7BEE8951124A7
:107F200032961213F4CFFE01C7BEE89507B600FCE7
:107F3000FDCFB7BEE895AECF843771F423D022D001
:107F4000F82E20D031D08E01F80185918F0113D009
:107F5000FA94F110F9CF9ECF853739F425D08EE110
:107F60000AD085E908D08FE094CF813509F0A6CFFB
:107F700088E014D0A3CF9091C00095FFFCCF8093F0
:107F8000C60008958091C00087FFFCCF8091C0009B
:107F900084FD01C0A8958091C6000895E0E6F0E058
:107FA00098E1908380830895EDDF803219F088E0B6
:107FB000F5DFFFCF84E1DFCFCF93C82FE3DFC150E0
:107FC000E9F7CF91F1CFFC010A0167BFE8951124D1
:107FD00007B600FCFDCF667029F0452B19F481E14E
:067FE00087BFE89508953B
:027FFE00030876
:0400000300007E007B
:00000001FF
